:020000040100F9
:1002000065480047002055E000BF062052E000BFCF
:100210000C204FE000BF12204CE000BF002056E051
:10022000042054E0082052E00C2050E010204EE062
:1002300014204CE018204AE01C2048E0202046E032
:10024000242044E0282042E02C2040E030203EE002
:1002500034203CE038203AE03C2038E0402036E0D2
:10026000442034E0482032E04C2030E050202EE0A2
:1002700054202CE058202AE05C2028E0602026E072
:10028000642024E0682022E06C2020E070201EE042
:1002900074201CE078201AE07C2018E000F03BF885
:1002A0001DE000F039F81AE000F037F817E001F02F
:1002B00023FF14E03F4909680968022902D138493F
:1002C000401800473C490968043109180847394972
:1002D00009680968022906D1304940588047002042
:1002E000073886467047344909689C31084700BF83
:1002F00064850F00018200012E4800680121016021
:100300002D480068004700BF2A490968022008609C
:10031000704700BFFEE7FEE7FEE7FEE7FEE7FEE709
:10032000FEE7FEE7FEE7FEE7FEE7FEE7DD3300015E
:100330002B0300012B0300012B0300012B03000101
:100340002B0300012B0300012B0300012B030001F1
:100350002B0300012B0300012B0300012B030001E1
:100360002B0300012B0300012B0300012B030001D1
:100370002B0300012B0300012B0300012B030001C1
:100380002B0300012B0300012B0300012B030001B1
:100390002B0300012B030001BD0300012C0300010E
:1003A0009D020001000000000000000000000000AD
:1003B00000000000F0020001F4020001034885463D
:1003C00000F066FC004800477D4300010000030088
:1003D000EFF31080704780F308887047000000003A
:1003E0000348004700BF0138FDD100BF7047FEE75A
:1003F0000102000170B504460D4629462046224AF6
:10040000904770BD70B504460D46294620461E4AE9
:100410001432904770BD70B504460D4629462046FB
:10042000194A5832904770BDFFB581B004460D4659
:1004300016460A980090324629462046134F049BE0
:10044000B84705B0F0BD70B504460D4616463246B5
:10045000294620460E4B984770BDFFB581B0054632
:100460000E46FFF7B5FF0446002C00D172B60A987D
:10047000009031462846074F049B039AB847002C4A
:1004800000D162B605B0F0BD156A0000591F00002A
:1004900033100000BD700000F0B58FB006461C217F
:1004A00008A800F0CAFB1C2101A800F0C6FB00242C
:1004B000002708AD00BF02222946FF203D3000F092
:1004C000C1F800BFA81C00F0C8F82846083000900A
:1004D0001022FF202D30009900F0B4F800BF28460C
:1004E0001830009002220C20009900F0ABF800BFF9
:1004F00000BF00BF08E008A8005D08A9497E484089
:10050000604001A90855641C192CF4D300240DE0A7
:1005100000203055002705E0305D01A9C95D484045
:1005200030557F1CA01C8742F6D3641C182CEFD3D7
:100530000FB0F0BD002806D06D4AD26980231A435F
:100540006B4BDA6105E06A4AD26980239A43684BB3
:10055000DA61684A126A120912010B071B0F1A436B
:10056000644B1A62704770B504460D462946204612
:10057000614A904770BD70B50024002600255C4894
:10058000C0698021084006465A48006A05072D0FB9
:10059000002E01D0802004432046284304465749BA
:1005A00040315648FFF7DFFF002D01D0284600E01C
:1005B000022001460020FFF7BDFF204670BD10B5A8
:1005C00004464E4940314D48FFF7CDFF2107090F42
:1005D000802222401046FFF7ADFF10BD10B51C2150
:1005E000474800F02AFB002046490870424828305E
:1005F000804700F03AF801204149087010BDFFB56E
:1006000081B006461C4600BFEFF31080014600BFD4
:100610000546002D00D172B6FFF7ADFF00902346CE
:100620003046394F039A0299B847012C02D132481B
:100630007C3080470098FFF7C2FF002D00D162B6E2
:1006400005B0F0BD70B504460D4616463246294643
:100650002046294B9833984770BD10B504460622B2
:1006600021460220FFF7EEFF10BDF0B591B0182132
:100670000BA800F0E2FA00200790089009900A9079
:10068000059006900024214D204E10360BA8FFF750
:1006900003FF05A8FFF7E1FF00BF0BE02046103085
:1006A0000BA9085C05A9095D4840214610310BAA39
:1006B0005054641C062CF1D307AA10210020144BBF
:1006C000984700200C49A4390BAB02900193039189
:1006D0000490102007AB0246294600900D480E4FAB
:1006E000B8470FA80D498847307011B0F0BD000021
:1006F00000880F0040850F0005440000350500010B
:100700004CBC020078BC02007953000050BC0200CF
:10071000F748000042434550051E0000894F000085
:10072000002806D0FE4AD26980231A43FC4BDA61C6
:1007300005E0FB4AD26980239A43F94BDA61F94A12
:10074000126A120912010B071B0F1A43F54B1A62AA
:10075000704770B504460D4629462046F24A904738
:1007600070BD70B5002400260025ED48C0698021C9
:1007700008400646EB48006A05072D0F002E01D001
:1007800080200443204628430446E8494031E74896
:10079000FFF7DFFF002D01D0284600E002200146D0
:1007A0000020FFF7BDFF204670BD10B50446DF49AD
:1007B0004031DE48FFF7CDFF2107090F802222409C
:1007C0001046FFF7ADFF10BDF8B50546FFF700FE78
:1007D0000446002C00D172B6FFF7C3FF0646284638
:1007E000D349884707463046FFF7DFFF002C00D18A
:1007F00062B63846F8BDF8B50546FFF7E9FD044690
:10080000002C00D172B6FFF7ACFF06462846C84957
:100810000C31884707463046FFF7C7FF002C00D150
:1008200062B63846F8BDFEB507460C461546FFF7DA
:10083000CFFD0646002E00D172B6FFF792FF019061
:10084000224629463846BA4BC03B9847009001984B
:10085000FFF7ABFF002E00D162B60098FEBDF8B5E1
:1008600007460C461546FFF7B3FD0646002E00D19D
:1008700072B6224629463846AD4B4233984700901F
:10088000002E00D162B60098F8BDFEB506460020E5
:1008900001900024FFF79CFD0546002D00D172B6A3
:1008A00003F062FD00200346042201A900903046B7
:1008B000A04FB84703F0DCFC6846C07904436846A3
:1008C0008079000204436846407900040443684686
:1008D000007900060443002D00D162B62046FEBD1B
:1008E000F7B582B005460E46FFF772FD0446002CB0
:1008F00000D172B6FFF735FF019003F035FD0020FF
:1009000001230090314628468A4F049AB84703F0E5
:10091000AFFC0198FFF749FF002C00D162B605B08B
:10092000F0BDF8B504460D46FFF752FD0646002E11
:1009300000D172B603F018FD6119620950017D4AB9
:10094000B43A9047074603F093FC002E00D162B6FC
:100950003846F8BDF8B506460F4614460025214630
:100960003046FFF7DEFF002816D1FFF731FD00907B
:100970000098002800D172B631193046FFF7E9FE21
:10098000002502E0705D78556D1CA542FAD30098F1
:10099000002800D162B604E0FF222146384600F06C
:1009A00045F9F8BDF0B5644B9D4404460021634809
:1009B0006844016000256149684600F03EF9002660
:1009C0002427210B09035D486844016025052D0D8E
:1009D000E8195A49884201D8012000E00220064661
:1009E000022E02D1C002401B00E02420C7B227E043
:1009F000524A6946514868440068FFF730FF4F4843
:100A000068440068FFF7E0FE002004E0FF212A1898
:100A10006B469954401CB842F8DB484A694647483F
:100A200068440068FFF7FFFE444868440068434993
:100A3000411842486844016000252420C01BC7B209
:100A40003046711ECEB20028D2D13C4B1B1D9D44B6
:100A5000F0BD7CB50546FFF7BBFC0446002C00D179
:100A600072B60020019003F07FFC0020034602468E
:100A700001A9009028462F4EB04703F0F9FB0198DA
:100A8000000601990904090E0904084301990902A5
:100A9000090E090208430199090E084301900198C3
:100AA000FFF780FF002C00D162B67CBDF0B5244B6F
:100AB0009D44064601200006301A4002070E092018
:100AC00000037843044601200006241802131D4940
:100AD00069442046FFF7C3FEFF2211011A4868440B
:100AE00000F0A4F8254604E02846FFF76DFE134801
:100AF0002D180920000320188542F5D31022114932
:100B000069442046FFF78FFE0C4A01A90920000323
:100B10002018FFF7A4FE09200003201816E00000AB
:100B200000880F0040850F000544000021070001E8
:100B3000B5480000F1510000FCEFFFFF001000007D
:100B4000FCDFFFFF0410000014100000FFF73CFE64
:100B5000FF22102101A800F069F80122120301A967
:100B6000092000032018FFF75EFE104B9D44F0BDE6
:100B700010B588B02021684600F05FF80C4C2021A9
:100B80002046FFF7CEFE00280ED1202269462046DF
:100B9000FFF7E0FE2046FFF75CFFFF206946087084
:100BA00020222046FFF79CFE08B010BD0420000064
:100BB0000080000130B50B460146002020220124B0
:100BC00009E00D46D5409D4205D31D469540491B81
:100BD0002546954040191546521E002DF1DC30BDCA
:100BE00070B500242546002801DA0124404200297E
:100BF00001DA01254942FFF7DDFFAC4200D0404257
:100C0000002C00D0494270BD03460B439B0703D024
:100C100009E008C9121F08C0042AFAD203E00B78C1
:100C20000370401C491C521EF9D27047D2B201E039
:100C30000270401C491EFBD270470022F6E710B537
:100C400013460A4604461946FFF7F0FF204610BD3A
:100C500030B504460020034600E05B1C934203D2FB
:100C6000E05CCD5C401BF8D030BD0321001D401E70
:100C7000037812021A43491EF9D5104670470346FD
:100C800003220870000A491C521EFAD51846704704
:100C9000064C0125064E05E0E36807CC2B430C3CCF
:100CA00098471034B442F7D3FFF78CFBD0520001C1
:100CB000F052000170B58C180578401C6B075B0F73
:100CC00001D10378401C2A1106D10278401C03E0B0
:100CD00006780E70401C491C5B1EF9D12B0705D409
:100CE0000023521E0DD40B70491CFAE70378401CF8
:100CF000CB1A921C03E01D780D70491C5B1C521E20
:100D0000F9D5A142D8D3002070BD00B503460A46EC
:100D1000012A04D0022A02D1012000F011FA00BDFC
:100D200070B505460E460121284601F081FE0446B5
:100D30004B480078002806D0022841D0032803D071
:100D400005286ED184E000BF002C03D10020444967
:100D5000087034E00A2C32DB4248046042484349C0
:100D60000860E1B24148006800F0D0F93E4840799F
:100D70003F4948713C4880798871402C03DA284605
:100D800000F0F8F81BE03848401CFFF76EFFFF2129
:100D90000631884203D90520314908700FE002204E
:100DA0002F49087031480068001930490860012156
:100DB000284600F0D1F93146284601F05FFB4CE0AF
:100DC00028480068001927490860402C0BDAE1B276
:100DD0002648006800F09AF9284600F0CBF8002079
:100DE0001F49087033E0402C31D11F48401CFFF7E9
:100DF0003CFF0A301B490968884213D9E1B21B48FD
:100E0000006800F083F91948006800191749086064
:100E10000121284600F0A0F93146284601F02EFBBA
:100E200015E019E01048401CFFF71FFF0A300D497C
:100E30000968884208D1E1B20C48006800F066F900
:100E4000284600F097F802E005200549087004E004
:100E500000200349087000E000BF00BF70BD000023
:100E60004401020058010200131D02005401020057
:100E7000021C020070B5054600202949C8712C46A5
:100E8000E007C00F002807D026484079012803DB7F
:100E90004220C871052070BD0220204000280AD0E1
:100EA0002048401CFFF7E1FE002804D040201C49E8
:100EB000C8710120EFE70420204000280CD0194819
:100EC000007A002803D11748407A002804D0402037
:100ED0001349C8710820DEE708202040002810D000
:100EE0001048C079002807D10E48007A002803D1A5
:100EF0000C48407A002804D040200949C8710720D6
:100F0000C9E720202040002808D0074800780028A2
:100F100004D041200249C871FF20BCE70020BAE795
:100F2000021C0200131D02004E0102000246012AAB
:100F300004DB42200D4BD871052070470C48007827
:100F400001280BD10A48407888420DD108488078A2
:100F5000904209D10020064B187005E00120044B97
:100F600018701846417082700020E6E7021C0200EB
:100F70004E01020070B50446434800786138030012
:100F800002F053FC13320B126A196A6A6A634E3913
:100F9000242B40206A55475C6A0000F0C3FD0546DB
:100FA000284600F0B9FE5BE000F0B0FD054628469B
:100FB00000F038FF54E000F073FD0546284600F0CD
:100FC00031FF4DE000F048FE054649E000F058FDD5
:100FD0000546284600F0F0FE42E000F0CDFD054653
:100FE000284600F0E9FE3BE000F0F0FD054628460B
:100FF00000F0E2FE34E000F027FD0546284600F050
:10100000BBFE2DE000F05CFD0546284600F00AFF1F
:1010100026E000F009FD0546284600F003FF1FE02A
:1010200000F0E0FC0546284600F0FCFE18E000F069
:1010300013FC0546284600F0F5FE11E000F062FCC6
:101040000546284600F080FE0AE000F027FC054631
:10105000284600F061FE03E0002000F0E3FE00BF40
:1010600000BF0A48007803280CD10948417B037B64
:101070000802184302460749204600F055F80020B0
:101080000249087070BD0000131D020044010200F7
:10109000051D0200021C02000021014A1170704768
:1010A0004401020010B50446012000F049F8012077
:1010B00000F04CF810BD000010B5044600F020F818
:1010C000002814D000F016F8002810D000F06CFEB4
:1010D000002000F035F8002000F038F80A2003F076
:1010E0009FF90223024A8221204600F014F910BD24
:1010F0004501020001480078704700004D010200E0
:1011000001484078704700005C0102000A46002157
:1011100004E0044B5B5C0370401C491C9142F8D313
:1011200070470000C21B020070B506460C4615460B
:101130002B4622468121304600F0EDF870BD0000BC
:1011400001490870704700004D01020001494870D4
:10115000704700005C01020070B504460D4615485A
:10116000154908600020154908601BE0A9002046C9
:10117000243040580078124908600846006840282A
:101180000AD21048FFF771FD0A300F4909680C4A6E
:1011900012688918884200D10AE008480068401C9B
:1011A0000649086005480068034909688842DDD39C
:1011B00000BF70BD0053070060010200640102001F
:1011C00068010200141D02005801020070B50646B5
:1011D0000C4680202040802807D16106490E182047
:1011E0004143304644300D1807E06106490E18208F
:1011F00041433046FF30AD300D186006400E287078
:1012000080202040C00968702946304602F082F9EB
:10121000002070BDFFB581B006460D461F468020F8
:101220002840802807D16906490E182041433046DE
:1012300044300C1807E06906490E18204143304637
:10124000FF30AD300C186806400E2070802028401A
:10125000C00960700398E071E7706078002801D0E1
:101260002078A071022F01D1002020712146304644
:1012700002F031F9002005B0F0BDFFB581B00546A0
:101280000E4617467106490E182041432846FF3086
:10129000AD300C18A7600498207400206074607052
:1012A0007006400E2070E878012800D1E7602078B1
:1012B000002804D12146284602F0C6F803E0214662
:1012C000284602F060F9002005B0F0BD70B5064672
:1012D0000C4680202040802807D16106490E182046
:1012E0004143304644300D1806E018202146414362
:1012F0003046FF30AD300D180120A8706006400E5A
:10130000287080202040C00968702946304602F0CD
:101310002AF9002070BDFFB581B006460D4617467C
:101320006906490E18204143304644300C1801200C
:1013300060706806400E2070A760002060740498FA
:1013400020742078002804D12146304602F07CF831
:1013500003E02146304602F016F9002005B0F0BD4A
:10136000FEB504460E460025ECE018202946414310
:10137000204644300F18012078703D70304000281E
:101380007ED0182029464143204644300818807CEE
:10139000002814D120463830032109024018007972
:1013A00000280AD03946204602F0D3F80021204612
:1013B000383003221202801801710020FEBD18206F
:1013C00029464143204644300818017C18202A460B
:1013D0004243204644301018407C091A18202A46FF
:1013E0004243204644301018C079814259DB18200E
:1013F000294641432046443008182946826818206F
:101400004143204644300818407C101800901820B2
:1014100029464143204644300818C379E8B20246C1
:1014200001902046009902F0E9F93946204602F081
:10143000C1F9182029464143204644300818417C10
:1014400018202A464243204644301018C079081814
:10145000C1B218202A464243204644301018417435
:10146000182029464143204644300818017C1820A2
:101470002A464243204644301018407C081A00E0B7
:101480005DE0C1B218202A4642432046443010187D
:101490008174012120463830032212028018017124
:1014A0004DE0182029464143204644300818027C6C
:1014B000294618204143204644300818407C101A21
:1014C000C3B2182029464143204644300818294613
:1014D000826818204143204644300818407C101888
:1014E0000090E8B2024601902046009902F086F989
:1014F0003946204602F05EF918202946414320462D
:1015000044300818017C18202A46424320464430C3
:1015100010184174002118202A46424320464430C6
:1015200010188174E9B20A48006842682046904762
:101530000021204638300322120280180171681CF5
:1015400085B27610002E00D00FE7012036E70000AC
:1015500098010200F8B506460C460125641011E01A
:10156000E007C00F00280BD0A90030462430475CAC
:10157000002F05D0E9B20548006802683046904760
:101580006D1C6410002CEBD10120F8BD9801020005
:1015900000207B2149030871FF2002498871012046
:1015A0007047000020600F00F8B506460F46394628
:1015B000304602F09DF801213A20815500213D205E
:1015C0008155002511E0182029464143304644301A
:1015D0000C18012060702570A5710020E07040207B
:1015E000E0710020A06020746D1C7078A842EAD8D9
:1015F000002511E01820294641433046FF30AD3028
:101600000C18002060702570A571E0704020E0711A
:101610000020A06020746D1C7078A842EAD8304683
:1016200001F00FFF0021304602F0AAF8F8BD0000DB
:10163000F8B506460C461746032E04DB204A0D215A
:1016400020A002F00FF9012C2BD0022C29D0042C61
:1016500027D0082C25D0102C23D0202C21D0402C92
:101660001FD0802C1DD0FF200130844219D04000B3
:10167000844216D04000844213D04000844210D0EF
:10168000400084420DD0400084420AD04000844291
:1016900007D04000844204D0094A0E2109A002F07C
:1016A000E1F8002509E00120A8402040002803D0EF
:1016B00030010D49401847556D1C102DF3DBF8BD66
:1016C000C15000012E2E5C2E2E5C2E2E5C4C6962C9
:1016D0007261726965725C73646B5C79635F677079
:1016E000696F2E630000000000870F0070B505468B
:1016F0000C46032D04DB1F4A6F211FA002F0B2F835
:10170000012C2BD0022C29D0042C27D0082C25D03A
:10171000102C23D0202C21D0402C1FD0802C1DD069
:10172000FF200130844219D04000844216D040008E
:10173000844213D04000844210D0400084420DD037
:10174000400084420AD04000844207D040008442D6
:1017500004D0084A702108A002F084F868000F49FC
:101760004018808F2040002801D0012070BD00204B
:10177000FCE70000F95000012E2E5C2E2E5C2E2E70
:101780005C4C69627261726965725C73646B5C79EE
:10179000635F6770696F2E630000000000870F00B1
:1017A00000200DE00849C86A08490968884207D046
:1017B000002805D0411C002902D00449086000E03F
:1017C000F0E700BF7047000000850F001400020022
:1017D00000B5FFF7E5FFC0B200BD000010B5174827
:1017E0000078002829D10B2001218140144A116082
:1017F00000BF01201149087094201249087712484F
:10180000FEF7F1FD01201921C90308740E48FEF707
:10181000EAFD00BF0D48C078802108400028F9D0BB
:101820000A48C07888430949C87002F037FD084863
:1018300002F04CF89C200349087710BD20000200FC
:1018400080E100E020850F001027000040800C00A0
:101850000C4900017047000010B51720FFF70AFB84
:101860000446002C01D0204610BD0A48C079052846
:1018700004DD40200849C8710720F5E7812C03D01A
:1018800040200549C87102E000200349C871204684
:10189000EAE70000131D0200021C020070B51749A0
:1018A0000020FFF7ECF93120FFF7E4FA0446002CA2
:1018B00001D0204670BD1248C679007A1049497A95
:1018C0000902401885B2002D06D040200B49491E60
:1018D000C87108242046EDE708493846FFF7CFF9DC
:1018E000812C04D040200549491EC87103E0002026
:1018F0000249491EC8712046DCE70000031C0200B3
:10190000131D0200F8B500261920FFF7B3FA0746A9
:10191000002F01D03846F8BD3048FFF7A6F9082857
:1019200004D040202E49C8710120F4E72B48401E06
:10193000867A3446C67A300204432848401E067B25
:10194000300404432548401E467B300604432348A8
:10195000401E867B3546C67B300205431F48401E2D
:10196000067C300405431D48401E467C3006054376
:101970001B480772812F07D0411C0020FFF77FF919
:1019800040201749C87126E01549491C0820FFF777
:1019900076F913498C72FF2000022040010A10489A
:1019A000C172FF2000042040010C0D480173210E7C
:1019B00041738573FF2000022840010A0848C17363
:1019C000FF2000042840010C05480174290E4174D1
:1019D00000200349C87138469DE70000141D02002D
:1019E000021C020010B53320FFF744FA0446002C15
:1019F00001D0204610BD0A48C079032804DD4020EC
:101A00000849C8710720F5E7812C03D0402005491B
:101A1000C87102E000200349C8712046EAE70000CF
:101A2000131D0200021C020010B50B20FFF722FA62
:101A30000446002C01D0204610BD00200149C87189
:101A40008120F9E7021C020010B57920FFF712FA95
:101A50000446002C01D0204610BD08492846FFF757
:101A60000EF9812C04D040200449491EC87103E0BE
:101A700000200249491EC8712046EDE7031C020000
:101A800010B51B20FFF7F6F90446002C01D02046C4
:101A900010BD00200149C8718120F9E7021C020035
:101AA00010B51B20FFF7E6F90446002C01D02046B4
:101AB00010BD00200149C8718120F9E7021C020015
:101AC00010B55720FFF7D6F90446002C01D0204668
:101AD00010BD0C48C079012804DD40200A49C871B6
:101AE0000720F5E70749C87900F0BAF90446812CC8
:101AF00003D040200449C87102E000200249C871A7
:101B00002046E5E7131D0200021C020010B50B2061
:101B1000FFF7B0F90446002C01D0204610BD81200B
:101B2000FCE7000038B512A00068009011490020C1
:101B3000FFF7A5F83720FFF79DF90546002D01D0E6
:101B4000284638BD0B490420FFF799F800200949C1
:101B5000491EC871002406E06846015D0548093049
:101B60000155601CC4B2042CF6D38120E9E70000C3
:101B70003B600000031C020010B55B20FFF77AF900
:101B80000446002C01D0204610BD11200D4988725A
:101B900000210C48C17201730A2141730021817335
:101BA000C17301740A3000F067F90446812C03D038
:101BB00040200549C87103E000200349C871812411
:101BC0002046E1E7131D0200021C020010B555205B
:101BD000FFF750F90446002C01D0204610BD8124A7
:101BE0001B48FFF742F8052805D11948401EC07967
:101BF000002800D007241648FFF737F8072805D13A
:101C00001348401EC079012800D000241048401E0F
:101C1000407B002800D00D240D48401E807B00280A
:101C200000D00E24812C02D040200A49C8710848F7
:101C3000093000F021F90446812C03D040200549E9
:101C4000C87103E000200349C87181242046C5E71C
:101C5000141D0200021C020070B500247920FFF759
:101C600009F90446002C01D0204670BD1C48FEF73F
:101C7000FCFFFF210631884201D90820F5E70A213F
:101C800018480068401CFEF795FF0E460A211648CA
:101C90000068FEF78FFF8E4214D00A2111480068B9
:101CA000401CFEF787FF0D46FF21103169430F4AA4
:101CB0008818FF2210320A49491EFEF7A5FF09487D
:101CC000056000E00824812C03D040200849C87139
:101CD00003E000200649C87181242046C5E70000C2
:101CE000141D0200100102000C010200EC100200A1
:101CF000021C020070B504460D462946204600F03D
:101D00008BFA70BD70B504460D461646294620462E
:101D1000FFF7F0FF70BD000070B504460A25802073
:101D2000084908700846047200204872812C04D1CA
:101D3000481CFEF79AFF401985B22946014800F079
:101D400079FA70BD021C020070B504460A25842091
:101D5000084908700846047200204872812C04D19A
:101D6000481CFEF782FF401985B22946014800F061
:101D700061FA70BD021C020070B504460A2583207A
:101D8000084908700020487208460472812C04D16A
:101D9000401CFEF76AFF401985B22946014800F051
:101DA00049FA70BD021C020050200249087003204D
:101DB000487070474501020070B504460A2582202C
:101DC0001649087008460472812C06D1411C052072
:101DD000FEF755FF681D85B204E01049491C00203C
:101DE000FEF74DFF0E4800780C4988720C48417888
:101DF0000A48C1720A488178084801730848C178C6
:101E0000064841730648017904488173002003495C
:101E100048722946014800F00DFA70BD021C02000C
:101E20002400020010B50446812008490870491CAE
:101E30000020FEF724FF0548047200200349487281
:101E40000A21024800F0F6F910BD0000021C020051
:101E500001468800014A1058704700006C000200DB
:101E60000146002901D181207047012901D10720B5
:101E7000FAE70020F8E7000070B503469E78FF2ED1
:101E800001DD0C2070BD1C781D782D072D0F284614
:101E9000FFF7DEFF002801D10A20F3E72409240719
:101EA000240F2046FFF7D4FF002801D10A20E9E7DC
:101EB00006498E7058784870187908711878044966
:101EC000C8701878014908708120DBE724000200FF
:101ED0008C0E0200F7B582B0054600260120019065
:101EE0002878002839D16878802836D17C48014686
:101EF000426B7C48FEF788FE7949486B794909397D
:101F0000FEF7BDFE32217648FEF797FE00207449A9
:101F1000486374480938FEF7A8FE07467148093837
:101F2000FEF7A3FE401C6F4909390090FEF7A7FE9B
:101F30006C489021C1550938FEF797FE074669485D
:101F40000938FEF792FE401C664909390090FEF7F9
:101F500096FE64480021C155BFE03046761C285CDF
:101F6000614908703046761C285C48703046761C03
:101F7000285C88703046761C285CC870039804285A
:101F800007D10020087100215848418101200190AB
:101F900045E00398052811D1002053490871A85D38
:101FA000002803D0A95D5148418103E0FF210131A0
:101FB0004E484181761C0220019030E003980528AC
:101FC0002BD93046761C285C4749087108460279AF
:101FD000A919401DFEF718FE434800798619039899
:101FE000864205D10320019000214048418116E03E
:101FF000701C039988420DD104200190A85D00282F
:1020000003D0A95D3948418109E0FF2101313748FA
:10201000418104E0082005B0F0BD0820FBE70198ED
:10202000032802D0019804280BD1052404E0295D7F
:102030002D48401D0155641C2B480079401DA042CD
:10204000F5D80198022802D00198042835D19021B2
:1020500027480172002141720A212448418100244D
:1020600002E024490C55641C20484089A042F8D85D
:102070001D48407884280BD1002404E01D48015DF0
:1020800018480155641C19484089A042F6D802E05E
:102090000021164841811648027A2046641C1149E5
:1020A0000A541348417A0F48015510494989881C40
:1020B0000C490939FEF7E3FD0FE00198012802D031
:1020C0000198032809D19021094801720021417229
:1020D000044909390220FEF7D2FD81209BE7000068
:1020E000B41002000C1C0200980E02009C0F0200AB
:1020F000A8100200A80F020006480068401C05490D
:102100000860084600680449884202D1002001495D
:102110000860704710000200FFFFFF7F10B5044603
:102120000D48844204D90D4A42210DA001F09AFBCA
:10213000641E1448006940084000124908610846BE
:10214000446100208861104908600E480069072139
:1021500008430C49086110BDFFFFFF0061520001F8
:102160002E2E5C2E2E5C2E2E5C4C69627261726982
:1021700065725C73646B5C79635F737973746963B4
:102180006B2E630000E000E01000020001480068D0
:102190007047000010000200F8B504460D46FFF736
:1021A000F5FF041B002C01DA0E4824180E48006AC3
:1021B0000007000F811C0D48FEF712FD07467D2128
:1021C000C900FEF70DFD0646094949696143084605
:1021D0003146FEF7EFFCA84201D30120F8BD0020F4
:1021E000FCE70000FFFFFF7F40850F0000B0710B90
:1021F00000E000E00648006940084000044908612A
:1022000000204861886103490860014908617047FE
:1022100000E000E01000020070B505460E46002404
:1022200003E0FFF7D5FA2855641CB442F9D32046E1
:1022300070BD0000034A11730B0A53730322024B53
:102240001A707047051D0200440102001FB50120ED
:102250000E49087000200E49087008220221FFF77D
:10226000E7F9092201210020FFF7E2F9E12000034C
:102270000190002168460172C17201704172817241
:102280006946002000F038F81FBD0000040002007D
:102290000500020010B50446002C06D0012C04D025
:1022A000094A412109A001F0DDFA002C02D0012CDD
:1022B00008D103E000200E49C86103E000200D4969
:1022C000C86100BF00BF10BD845100012E2E5C2EDE
:1022D0002E5C2E2E5C4C69627261726965725C7351
:1022E000646B5C79635F756172742E63000000003B
:1022F000008B0F00008C0F00F8B505460C46002639
:102300000027002D06D0012D04D0464A9A2146A070
:1023100001F0A8FA2078402807D02078002804D0BF
:10232000404A9B2140A001F09DFAB721C900606896
:10233000884203D945496068884204D3394A9C21C0
:1023400039A001F08FFAA07A00280AD0A07A0028DC
:1023500007D0A07A022804D0324A9D2132A001F091
:1023600081FAE07A002807D0E07A102804D02D4ABC
:102370009E212DA001F076FA607A002807D0607ABD
:10238000082804D0274A9F2127A001F06BFA304883
:102390006168FEF70FFC0704A07A01210843217A47
:1023A0000843617A0843E17A084321780843802191
:1023B000084338430646002D19D100202549C8613D
:1023C0002548486025488860012008730846C07B7E
:1023D000202108431F49C8730846C07B2021884339
:1023E0001C49C8730020C8610846C66118E0002077
:1023F0001B49C8611B484860184888600120087361
:102400000846C07B202108431549C8730846C07B95
:10241000202188431249C8730020C8610846C6615C
:10242000F8BD0000A05100012E2E5C2E2E5C2E2E39
:102430005C4C69627261726965725C73646B5C7931
:10244000635F756172742E630000000021AA44006E
:10245000006CDC02008B0F00F40502004C0400004D
:10246000008C0F00400A020070B504460D46294654
:102470002046FEF74AFC002070BD000070B50446FF
:102480000D464023054A01212046FEF7F6FE294667
:102490002046FEF745FC002070BD0000C21B020074
:1024A00070B504460D4681212046FEF78FFE0121BE
:1024B0002046FEF78BFE82212046FEF787FE20464F
:1024C000FEF7EAFD002070BD02465D20088001484D
:1024D000704700007052000170B504460D4602239B
:1024E000402281212046FEF795FE02234022012151
:1024F0002046FEF78FFE0323082282212046FEF7A6
:1025000089FE2046FEF7CEFD002070BDF3B581B0F8
:102510000C4620786021084000286AD0202870D11D
:102520006078012804D0022823D0032859D13CE048
:10253000E088002816D1207880210840802811D01A
:10254000A6786088FF210902084007123946304604
:10255000FEF7ECFC00280BD02146019800F0B5F8FE
:102560000220FEBD2146019800F0AFF80220F8E7F6
:102570003DE06088002811D1E08800280ED0207846
:1025800080210840802809D10025402D00DD40250C
:102590002A462C49019800F0A0F805E02146019850
:1025A00000F093F80220DCE721E06088002811D1D8
:1025B000E08800280ED0207880210840802809D1AA
:1025C0000025402D00DD40252A461E49019800F0D7
:1025D00084F805E02146019800F077F80220C0E772
:1025E00005E02146019800F070F80220B9E700BF2D
:1025F00024E06078012807D00A2803D00B281AD1DC
:1026000001E01AE017E016E021790198FEF7DEFDFF
:10261000A08880210840802806D121790223402209
:102620000198FEF7F7FD05E0217902234022019889
:10263000FEF7F0FD00BF00BF00E000BF00BF0020BC
:102640008FE70000821B020070B504460D4620464D
:1026500038300521C9014018406F2946426820469C
:102660009047002070BD70B504460D463A20005DCD
:10267000022802D0032814D100E000BF6888012896
:102680000ED100212164204638300521C9014018AF
:10269000406F2946826820469047204600F031F876
:1026A00004E02946204600F010F800BF00BF70BDCE
:1026B000F8B506460C46154600272B462246002153
:1026C0003046FEF7DAFD3846F8BD70B504460D46D3
:1026D00000212046FEF7FAFD70BDF8B504460E460F
:1026E000154600275720055556200555022139204B
:1026F00001552B46324600212046FEF70CFE384697
:10270000F8BD70B504460025042139200155002389
:102710001A4619462046FEF7FEFD284670BD70B5E4
:1027200004460D46002D14D0204638300521C9013D
:102730004018406F406900280BD03A20005D032804
:1027400007D1204638304018406F2946426920465C
:102750009047002070BD70B505460E46002E3BD157
:102760002C46FF34AD343920405D032849D1A07C8C
:10277000E179884217DDA07CE179401AA074E878FD
:10278000012803D1E179A0684018A060A07CE3791A
:10279000984201DAA07C00E0E07902462846A16870
:1027A000FFF786FF2DE0284638300521C901401883
:1027B000406F006900280BD03A20405D032807D104
:1027C000284638300A468018406F016928468847F5
:1027D0002846FFF796FF14E0284638300521C90146
:1027E0004018406F806900280BD03A20405D0328D4
:1027F00007D1284638304018406F31468269284654
:102800009047002070BD01460020704710B5044677
:10281000214638310522D2018918896F48698047DD
:1028200001213E200155002010BD10B5044621466F
:1028300038310522D2018918896F8869804720467E
:1028400038300521C9014018406F002142682046F8
:10285000904700213E200155002010BD70B5044670
:102860000D46E888012804D029462046FFF72DFFB1
:1028700019E03A20005D022802D003280DD105E0BE
:10288000012209492046FFF728FF0BE001222146DB
:1028900038312046FFF721FF04E029462046FFF7A4
:1028A00014FF00BF00BF70BDA0010200F8B50446D0
:1028B0000E4670880012030000F0B7FF0891051162
:1028C0002591918B8C91A078214638310523DB012D
:1028D000C918C96F0A6869469047054684E0A07820
:1028E000214638310523DB01C918496F8A6A6946D8
:1028F00090470546022169702146383103221202B1
:1029000089180D6070E0B078030000F08EFF0604B7
:10291000101C283B4753A078214638310523DB01A2
:10292000C918C96F4A686946904705464FE0A078C4
:10293000214638310523DB01C918C96F8A68694609
:102940009047054643E0A078214638310523DB0156
:10295000C918C96FCA6869469047054637E0A0782C
:10296000214638310523DB01C918C96F0A69694658
:10297000904705463A20005D032802D105213B20FF
:10298000015524E0A078214638310523DB01C91820
:10299000C96F4A6969469047054618E0A078214604
:1029A00038310523DB01C918C96F8A696946904728
:1029B00005460CE0B178A078224638320527FF01A1
:1029C000D219526FD36A6A469847054600BF00BFC6
:1029D0000AE0F8BD31462046FFF777FEF9E73146B9
:1029E0002046FFF772FEF4E700BF68460088002823
:1029F00012D0F08800280FD0F088694609888842F4
:102A000002DD6846008800E0F088009069460A8888
:102A100029462046FFF761FE00BFDAE701460020A5
:102A200002E0421CD0B2491C0A78002AF9D1704752
:102A3000024618200B4643431046FF30AD301818AD
:102A4000407C704770B504460D463A20005D022870
:102A500002D0032813D100E000BF01200B49086019
:102A6000206C002805D00846006802210843074969
:102A70000860022205492046FFF72FFE04E02946A0
:102A80002046FFF722FE00BF00BF70BDA401020078
:102A9000F8B504460D4617460026002C1ED02046E9
:102AA000FFF7BCFF4000801C38803A783046711C2C
:102AB000CEB22A5403223046711CCEB22A540AE008
:102AC00022783046711CCEB22A54641C0022304653
:102AD000711CCEB22A5420780028F1D1F8BDFFB580
:102AE00081B0044615461E460A9F2046FFF78BFE1E
:102AF000204638300521C901401846672046383045
:102B000040188767204638304018C567204602992C
:102B1000FEF74AFD05B0F0BD10B50446204638303A
:102B20000522D2018018406F016A204688470020A4
:102B300010BD10B50446204638300522D201801859
:102B4000406F416A20468847002010BD7CB504468E
:102B500000250026204600F0AEFD00287ED0606BE8
:102B600041780191606B8178009168460079002876
:102B700000D17CBD68460079C009002803D02046FA
:102B8000FEF706FD0543E021606B41706846007961
:102B90000E21084000280ED0684600790E22104011
:102BA00001462046FEF7D6FC0543684600790E2113
:102BB0000840616B487068460079C007C00F002864
:102BC0006AD01121606B41703F480078002808D01E
:102BD000E068007980210843E168087100203A49E3
:102BE000087068460079C006C00F002854D0606A9B
:102BF0000678FF20B430005DB04208DCFF20BE3014
:102C0000005D8119FF20BD30005D814230D1FF2081
:102C1000B5300259FF20BE30005D11183346002246
:102C2000204600F053FD0021FF20BE300155FF205B
:102C3000B530015920463830B722920080188142C1
:102C400010D02046383011464118FF20B5300151D0
:102C50000021FF20BE300155082100E031E0401E78
:102C6000015519E01948006881682046884713E03B
:102C7000FF20B5300259FF20BE30005D11183346E9
:102C80000022204600F022FDFF20BE30005D8019AA
:102C9000C1B2FF20BE300155684600780007000F22
:102CA00000280ED0684600780107090F2046FEF77D
:102CB00057FB054368460078616B8870FF21606BA5
:102CC000C170284655E70000090102009801020082
:102CD00010B5024638320B239B01D218127F0A70BE
:102CE00002463832B7239B00D21852784A70024607
:102CF0003832D218937802463832B724A400121919
:102D0000D27812029A184A80024638322346D218E4
:102D10001379024638321219527912029A188A80AF
:102D2000024638322346D2189379024638321219B5
:102D3000D27912029A18CA808B795822135401232F
:102D40003922135410BD10B5044600234022194601
:102D50002046FEF75FFA0023402280212046FEF73E
:102D600059FA01213A200155A0782246383205232C
:102D7000DB01D218926F51688847002010BD10B552
:102D80000446214638310522D2018918896F086925
:102D900080473C20015D3A20015503210155002068
:102DA00010BD10B50446204638300521C901401831
:102DB000406FC069002807D0204638300A46801886
:102DC000406FC16920468847002010BD70B5044699
:102DD0000D46A888002821D1E88800281ED1A878AF
:102DE0004606760E3A20005D032804D12946204687
:102DF000FFF76BFC16E03D2006550B480078E168B4
:102E000008712046FFF77DFC002E03D002213A20F6
:102E1000015507E001213A20015503E029462046EB
:102E2000FFF753FC70BD00000A01020070B50446B4
:102E30000D46204638300521C9014018406F29460B
:102E4000026820469047214638310522D201891870
:102E5000896F88688047002070BD000070B5044607
:102E60000D46A8783049087008460078012804DD2E
:102E700029462046FFF729FC54E03A20005D02284D
:102E800002D0032848D117E02748007800280FD047
:102E9000254801783820015503213A200155224860
:102EA00001782046FFF7C2FF2046FFF72AFC02E028
:102EB0002046FFF726FC34E01B48007800280FD19D
:102EC00002213A200155184801783820015516484A
:102ED00001782046FFF7B8FB2046FFF712FC1AE006
:102EE0003820005D10490978884211D03820015DF2
:102EF0002046FFF7A9FB0C480178382001550A4805
:102F000001782046FFF792FF2046FFF7FAFB02E028
:102F10002046FFF7F6FB04E029462046FFF7D5FBE5
:102F200000BF00BF70BD0000A801020070B50446DC
:102F30000D466888012811D10121216420463830CE
:102F40000521C9014018406F2946826820469047F4
:102F50002046FFF7D6FB204600F048FA70BD1CB5AE
:102F6000044669462046FFF7B3FE68460078C0066F
:102F7000C00E002804D0012807D002280FD109E094
:102F80006946204600F018F812E06946204600F035
:102F900011F90DE06946204600F054F808E0684653
:102FA00000788022104001462046FEF78FF900BFCE
:102FB00000BF00201CBD000070B505460C46002671
:102FC0006078030000F031FC0A222C3227320B0615
:102FD000311D183221462846FFF768FC2BE00120FE
:102FE00016490870A0784006400E15490870214621
:102FF0002846FFF7EBFE1EE021462846FFF72EFF8E
:1030000019E021462846FFF729FC14E0214628460E
:10301000FFF718FD0FE021462846FFF787FF0AE07B
:1030200021462846FFF71FFB05E004E0214628461D
:10303000FFF74BFB00BF00BF304670BD0901020027
:103040000A010200F8B505460E460027347970786B
:1030500000285FD0012831D003287DD13A20405D7F
:10306000022802D0032822D108E0002C05D0802CB1
:1030700003D021462846FEF729F91DE07088002874
:1030800007D1002C05D0802C03D021462846FEF71E
:103090001DF9284638300521C9014018406F3146D6
:1030A0008268284690472846FFF72BFB04E031460C
:1030B0002846FFF70AFB00BF00BF75E03A20405DDD
:1030C000022802D003281ED108E0002C05D0802C55
:1030D00003D021462846FEF7F9F819E07088002849
:1030E00010D1002C0BD0802C09D028463830052177
:1030F000C9014018406F31468268284690472846EB
:10310000FFF7FFFA04E031462846FFF7DEFA00BF7A
:1031100000BF49E03A20405D022802D003283BD19D
:1031200008E0002C05D0802C03D021462846FEF76D
:10313000CDF836E080202040802812D16106490E6B
:10314000182041432846443008188078002804D0CD
:1031500001201749086019E025E0002014490860A3
:1031600014E080202040002810D11820214641433F
:103170002846FF30AD3008188078002803D00120A1
:103180000B49086002E00020094908600222084952
:103190002846FFF7A2FA04E031462846FFF795FAE1
:1031A00000BF00BF00E000BF00BF3846F8BD000010
:1031B0009C01020070B504460D4600263A20005DD1
:1031C00003281AD12879012812DC2046383005213D
:1031D000C9014018406F2946826820469047E88818
:1031E000002809D1002E07D12046FFF78AFA03E014
:1031F00029462046FFF769FA04E029462046FFF7F2
:1032000064FA00BF00BF304670BD10B504463A20D6
:10321000015D3C20015504213A20015521463831F9
:103220000522D2018918896FC8688047002010BD27
:1032300070B505460C46002D04D02246024903A075
:10324000FFF726FC004870BD241E0200537472690B
:103250006E6720436F6E66696700000070477047B5
:10326000024612200880014870470000C800020092
:103270007047704710B502A0FEF7ECFA10BD0000D1
:103280000A3E205553422044657669636520696E85
:103290002049646C65204D6F64652E0A00000000B3
:1032A00010B502A0FEF7D6FA10BD00000A3E205568
:1032B00053422044657669636520696E20537573B7
:1032C00070656E64204D6F64652E0A0070470000C3
:1032D00070B505460C46002D04D02246024903A0D5
:1032E000FFF7D6FB004870BD241E02005343522056
:1032F000496E7465726661636500000002460420D1
:103300000880014870470000E800020070B50546DB
:103310000C462246024903A0FFF7BAFB004870BDE5
:10332000241E0200594943484950000070B5054623
:103330000C46002D04D02246024903A0FFF7A8FB4B
:10334000004870BD241E0200594333317878204371
:1033500043494420424F4F540000000070B50546D9
:103360000C46002D04D02246024903A0FFF790FB33
:10337000004870BD241E0200303030303030303014
:10338000303530430000000010B5642000F076FFB7
:1033900040207B214903887400200D4948727B211D
:1033A0004903087000BF012181400A4A116000BF33
:1033B00006200949C96A012282401143064AD162A6
:1033C00000BFFEF717FF642000F058FF10BD00009B
:1033D00020600F0080E100E040850F0010B502483A
:1033E000FFF7B4FB10BD0000B402020038B504467C
:1033F000E0680178009168460078402188434118D0
:103400000091684600788021884341180091684601
:103410000078E16808700A2000F030FFFF20F530E6
:1034200000F034FF684600784021884300906846E9
:10343000007880218843009068460078E168087031
:1034400038BD014600207047F0B505460C46002601
:103450000027607801283CD1207C617C401AA07450
:10346000A07C002808D12146284600F072F8207C74
:1034700060740020A07428E0A07CE179884214DD0B
:10348000627CA0688118E3790022284600F0B6F932
:10349000607CE17940186074207C617C401AA074E3
:1034A0002146284600F086F90FE0627CA06881186A
:1034B000A37C0022284600F0A1F9207C6074002043
:1034C000A0742146284600F075F9E878002800D15C
:1034D00000BF3046F0BD18B5024600204B78012BE6
:1034E0000BD10C78A340DBB20093D3685B786C46B9
:1034F0002478A343D46863700BE00C780123A340C5
:10350000DBB20093D3685B786C462478A343D4681D
:10351000637018BD18B5024600204B78012B0BD103
:103520000C78A340DBB20093D3685B786C462478B8
:103530002343D46863700BE00C780123A340DBB213
:103540000093D3685B786C4624782343D468637017
:1035500018BD10B5024600200C781023A340DCB241
:1035600013691C7010BD70B504460D4600262878FE
:10357000002802D101212069417029462046FFF729
:10358000E8FF304670BDF8B505460C4600200090B7
:10359000607801286CD1E878002802D020780128D2
:1035A00022D0207C617C401AA074A07CE179884202
:1035B0001BD1677CA068C119E3792278284600F006
:1035C0001DF9607CE179401860742146284600F0BE
:1035D000F1F8207C60740020A07401212846383066
:1035E000032212028018017160E0A07C00280CD137
:1035F000637CA068C11822780023284600F0FEF8FA
:10360000207C60740020A07450E0A07CE1798842A6
:103610001DDD677CA068C119E3792278284600F097
:10362000EDF82146284600F0C5F8607CE1794018A5
:103630006074207C617C884204DB207C617C401AC1
:10364000A07433E00020A074207C60742EE0677CBE
:10365000A068C119A37C2278284600F0CFF8214643
:10366000284600F0A7F8207C60740020A0741DE0BC
:10367000207881002846243040580678637CA06872
:10368000C11822783346284600F020F8607C801963
:103690006074207C617C884204DC607C217C401A60
:1036A000A07403E00020A074607C20740098F8BD32
:1036B00001460020704700B502461046FFF7F8FFAC
:1036C000012801D0012000BD0020FCE7F0B5044630
:1036D00000201E460D4600BF07E07B277F03D71959
:1036E0003F7E2F70471CF8B26D1CB042F5DBF0BD79
:1036F000F0B502460B46002400200025D5700125B8
:10370000957040259580012B0AD17B246403012507
:10371000D572042555704025D580022515720BE021
:10372000002B09D17B2464030025D5720825157070
:1037300004255570ED01D5807B256D03D5600F4EB6
:103740001661002107E00D4D08354E198F00154612
:103750001435EE51491C0429F5D3002107E0074D2B
:1037600010354E198F0015462435EE51491C042999
:10377000F5D3024E15365663F0BD000010600F0001
:1037800070B504460D460026012D0DD0002D0BD13D
:1037900020463830B72189004118FF20B53001514B
:1037A0000821FF20BD300155322000F06FFD30466A
:1037B00070BD000030B50346002040240D4DAC71B3
:1037C000002207E00B4CA47940252C40002C00D0AF
:1037D00003E0521C084CA242F4DB00BF0D78012428
:1037E000AC40044DEC710D780124AC407B256D0399
:1037F0002C7430BD20600F0010270000F8B504467F
:10380000002000900025E07800280CD100BF08E0DF
:103810000E78970020461430C0590670491C681C69
:10382000C5B29D42F4DB0098F8BD30B47446641E06
:103830002578641CAB4204D3635D5B00E31830BCA5
:1038400018471D46F8E702E008C8121F08C1002A01
:10385000FAD170477047002001E001C1121F002A11
:10386000FBD1704700BFFEE7F0B5059C0502084E8E
:10387000AD1929600502AD196B60150425430602D8
:10388000034FF619B56080250602F619F573F0BDF1
:1038900000880F0000BF0102034A89180969C9079F
:1038A000C90F0029F7D0704700880F00F8B504460B
:1038B0000E46154623462A46314606200095FFF758
:1038C000D3FF0620FFF7E6FFF8BD000070B5044601
:1038D000A41C207861780902FF22120211400843DB
:1038E0002849884200D070BDA41C0D202649C96A11
:1038F000012282409143244AD16200BF2578617839
:103900000902FF22120211400D43A41C00201F498E
:10391000087188708020C87008201D4908732A46E5
:1039200021461A48401DFFF7C1FF00201749C87003
:1039300064191749087318E0A41C207861780902FB
:10394000FF221202114008430546A41C207861782A
:10395000090211400843032189044618A41C2A4681
:1039600021463046FFF7A2FF6419207861780902EA
:10397000FF2212021140084302498842DCD000BFF6
:10398000B1E70000AA55000040850F0020800C0020
:10399000008E0F0070B5FFB0FFB086B005468321E2
:1039A000890081A8FDF749F9FF21013181910422A5
:1039B0001B4982A8FCF747FDFF220132194983A861
:1039C000FCF741FDFF2201321549183141A8FCF7EF
:1039D0003AFD0020144B81AA41A9009001A8FCF7F0
:1039E00023FD0646FF22013201A901A8FCF72BFDA9
:1039F00040A80478407801020C4340A88078010474
:103A00000C4340A8C07800060443AC4204D10748E8
:103A10007FB07FB006B070BD0448C043F8E7000037
:103A200028B1020028B00200051D0001AA55AA55C0
:103A300010B500F0ADFB00F025F92049884200D018
:103A400010BD00F001FA1D49884200D0F8E700F0EF
:103A500081F91A49884200D0F2E705202B21090399
:103A60000870084640881649884204D02B2000037D
:103A70004078552819D100F023FE1049884206D11C
:103A80002B2109030878002100F03EFBD8E72B2109
:103A900009030878032100F037FB01214902094896
:103AA00000F012F800F050FD06E02B210903087821
:103AB000002100F029FBC3E700BFC1E7AA55AA55C2
:103AC00055AA000000800001F3B53F4B9D440E460F
:103AD00000213E48684441608160C16001613B490A
:103AE00001A8FDF7AAF8002E04D10020374B1C33A3
:103AF0009D44F0BD3548684440690402240AA51974
:103B0000E00B092109034843044631482818C00B3B
:103B10004843054610352D48401E2818000B050364
:103B200001200006274607433C460543274610224E
:103B3000284969442046FCF792FE2449681A0A463F
:103B400001A9FCF78CFE002003E0FF2101AA11541B
:103B5000401C1028F9DB08E02046FCF735FE012860
:103B600001D00020C2E7194824186004400C002846
:103B7000F2D109E02046FCF73EFE012801D00020EA
:103B8000B4E70120C00324180120C0032018A84274
:103B9000F0D908E02046FCF717FE012801D00020EC
:103BA000A4E70A482418AC42F4D310220949694416
:103BB0003846FCF738FE0549681A0A4601A9FCF7A1
:103BC00032FE012092E70000ECEFFFFF0010000042
:103BD000FF7F00000410000010B50E2222490020D3
:103BE00000F02CFCFF221F321F490E311F48FCF74A
:103BF000B1FEFF211F311C480E30FCF703FC1C49AD
:103C0000884204D11B482B210903488009E016484B
:103C10000E30FF211F31FDF710F800202B21090382
:103C20004880012149021448FCF77BFE012809D095
:103C300012491148FCF78DFD1148FF2211320E493F
:103C4000FCF7E2FF2B20000340880A49884206D196
:103C50002B200003808C2B210903888003E00020A7
:103C60002B210903888010BD06B00200007C0001F2
:103C7000AA55AA5555AA0000008000011081000134
:103C800034B1020010B502202B210903087000F0A6
:103C90006DF92D49884208D02B21090308780121AC
:103CA00000F032FA2848C04310BD2B2000039121B8
:103CB0008900401880782B210903912292008918ED
:103CC000C97809024018FF212231884208D02B21EF
:103CD00009030878022100F017FA1B48C043E3E704
:103CE00006242B20000340881849884220D02B202E
:103CF0000003912189004018005D552818D12B2020
:103D0000000342182046641C105C2B2109034870F4
:103D10000A4691239B00D21811190D48FF221D322B
:103D2000FCF772FFFF211D310948FCF763FB03E03C
:103D300000202B21090348702B210903087800215A
:103D400000F0E2F90048AFE7AA55AA5555AA0000CD
:103D500014B00200F0B5FFB084B0012082900025BD
:103D600004202B21090308700026FCF737FC324F92
:103D7000002081905AE000F0F9F8304988420AD0DA
:103D80002B2109030878012100F0BEF92B48C0431C
:103D90007FB004B0F0BD2B200003912189004018B2
:103DA00080782B210903912292008918C978090291
:103DB0004018861EAD198298012822D100208290D9
:103DC0001F488068C11DFF31FA311B48FFF77CFE98
:103DD0001B49FF22113201A8FCF716FFFF24113402
:103DE00003E0FF2001A90855641C01204002844221
:103DF000F7D3224601A93846819BFCF700FC3F1906
:103E000000BF2B2109030878002100F07DF90C4840
:103E10008068A84201D8012000E00020819032464D
:103E200008493846819BFCF7EAFBBF1904488068C3
:103E3000A842A0D80148ABE700800001AA55AA55C6
:103E400034B1020048B2020010B503202B2109034F
:103E5000087000F08BF83F49884208D02B210903F5
:103E60000878012100F050F93A48C04310BDFF2105
:103E700011313948FCF7CFFA3649884208D02B2156
:103E800009030878012100F03FF93248C043EDE70B
:103E90002B20000391218900401880782B210903F1
:103EA000912292008918C97809024018FF21133124
:103EB000884208D02B2109030878022100F024F958
:103EC0002448C043D2E72B22120391239B00D2182F
:103ED000111D2248FF221132FCF796FE2B20000311
:103EE00040881F49884204D02B2000034078552881
:103EF00027D11A498868FFF74DFD1649C943884202
:103F000008D12B2109030878032100F0FDF811489E
:103F1000C043ABE72B20000340881149884210D0F2
:103F2000FF221F320F49104800F0C0FC012808D0C2
:103F30002B2109030878052100F0E6F80548C04365
:103F400094E72B2109030878002100F0DDF80148EF
:103F50008CE70000AA55AA5548B2020034B102000D
:103F600055AA000014B00200007C0001F0B585B035
:103F7000FEF70CF90390002002900024042700258E
:103F80005D480190A8E000F08DFB002801D100F011
:103F9000DBFA5A495A4800F093F90646002E7CDDB8
:103FA000FEF7F4F80390002000906FE0534900986A
:103FB000095C2B2000039122920082182046641C89
:103FC00011544D49C9430198884231D1042C0ED176
:103FD0002B200003912189004018C07800022B217A
:103FE000090391229200891889784018C719BC42A8
:103FF00049DB39464348FCF705FA3F49C943884243
:1040000001D105B0F0BD6D1C032D01DD3A48F8E784
:104010002B2109030878042100F076F8FEF7B6F8A2
:1040200003900020029000240427334801902AE0E6
:10403000022C28D13348001F007955280FD12B209E
:10404000000391218900401840782B210903097849
:10405000884204D100252848C043019013E02B205A
:10406000000391218900401840782649091F0871F2
:1040700001240298401C0290E1020298884202DD6D
:104080001D48BEE709E00098401C00900098B0422F
:104090008CDB1B4800F0E4F91EE02B200003818834
:1040A0000398FEF779F8012816D12B2000038088A9
:1040B000002811D06D1C032D0EDC2B21090308787C
:1040C000042100F021F8FEF761F80390002002902F
:1040D00000240427084801902B20000381880398BE
:1040E000FEF75AF8002800D14DE72B200003808806
:1040F0000028F9D0004884E755AA55AAAC0102006F
:10410000B402020044B202007CB505460E4600200F
:10411000009001900024052D1FD1FFF727FF1B49B8
:1041200088421AD0AA222046641C69460A542046B6
:10413000641C0D5403222146641C6846425400222C
:104140002046641C69460A5401222046641C0A5415
:104150002146684600F074F87CBDAA222046641C03
:1041600069460A542046641C0D5403222046641CF0
:104170000A5400222046641C0A542046641C0E5433
:104180002146684600F05CF800BFE5E7AA55AA554D
:1041900010B58EB0342101A8FCF74FFD002401209A
:1041A0002B2109030870AA222046641C01A90A5485
:1041B0002B20000302782046641C0A542622204645
:1041C000641C0A5400222046641C0A541A4901AA9D
:1041D00010190C22FCF718FD0C3401A8001916491F
:1041E000091F0A78027049784170A41C12490E31E7
:1041F00001AA10191422FCF707FD14340F4948884E
:10420000C117090E091809120902411ACBB2224638
:10421000641C01A98B5409494888C117090E091863
:1042200009040B0E2146641C01AA5354214601A81F
:1042300000F006F80EB010BD06B0020034B1020066
:1042400070B505460C4621462846FCF7D3F8A41C59
:10425000224629460448FCF7D7FC03484463034838
:1042600000F0FEF870BD0000B4100200B4020200BD
:1042700010B50148804710BD8144000010B50446C8
:1042800020460149884710BD5D42000010B5044634
:1042900020460149884710BD39420000002009E04E
:1042A0000021032292048218117031229203821895
:1042B0001170401C012109038842F1D370470000AE
:1042C000F8B505460E4600200090002D00D1F8BD3F
:1042D0000A2122480068FCF76DFC0F460A2120489D
:1042E0000068FCF767FC8F4201D10020EFE70A214C
:1042F0001A480068401CFCF75DFC0C46FF2010309B
:10430000604318494018807A002824D1FF201030DB
:1043100060434018C07A80281DD1FF2110316143CD
:10432000104A8918481CFCF7A0FC471FFF201030DA
:1043300060430C4A801801460F313A463046FCF77C
:1043400063FCFF2110316143064A8918481CFCF7C1
:104350008CFC401FBBE70020B9E700000C01020005
:1043600010010200EC10020010B50148804710BD9A
:104370002D44000010B5FBF7BFFF10BD10B569213B
:1043800009012B200003FCF758FCFFF725FC402215
:1043900002210020FDF74CF9FF2111311E48FCF7E6
:1043A0003AF81E4988420AD11B481438007D552826
:1043B00005D102210020FDF799F900280ED100F067
:1043C0000BF9FDF743FF00F0CBF8012801D1FFF70F
:1043D0002FFBFEF7D9FF0020FDF75CFF0022022132
:1043E0001046FDF725F92B2000034088002808D04F
:1043F000FFF7F2FB00F064F90849884201D000F0B1
:10440000A3F8692109012B200003FCF716FCFFF734
:10441000B1FF002010BD000034B10200AA55AA551A
:1044200007E01921090200E000BF0A46491E002AE0
:10443000FADC0246401E002AF3DC704770B50446E1
:104440000D461646FFF790FF324629462046034B9D
:104450009847FFF70DFF012070BD00009D4400004C
:10446000F1B500250098002801D1801EF8BD0A2171
:104470002F480068FCF79EFB0F460A212D48006874
:10448000FCF798FB8F4202D10020C043EEE70A21DF
:1044900027480068401CFCF78DFB0C46FF201030BD
:1044A000604325494018407A0602FF2110316143DC
:1044B000214A8918097A0E4320493046FCF7DFFB70
:1044C000FF21103161431C4A8918481CFCF7CDFBC1
:1044D0000746FF2110316143174A891808460A3000
:1044E00032463946FDF7F6FC054611480460812D39
:1044F00004D040201149491EC87104E000200F4932
:10450000491EC87181252846FDF706FC0C48417BF1
:10451000027B080210430346084A521E812100987C
:10452000FCF7F9FE00200749087000BF9EE7000075
:104530000C01020010010200EC100200031C02003A
:10454000051D0200440102000448406B012108439C
:10455000024948635520C86300BFFEE740850F004D
:1045600070B5012400F09EF8054600262FE000F00B
:1045700099F8002807D1012D05D100240026002537
:1045800000F02AF800E001251148C07805281AD16A
:1045900010490F483838FFF793FE06460A2E0ED111
:1045A0000124002005E00B49095C662900D00024A5
:1045B000401C0A28F7DB012C01D1012070BD044802
:1045C0003838FCF779FD02483838FFF749FFCEE765
:1045D000EC020200AC01020008B5FDF7FFF8284824
:1045E000FDF79CFD6420FFF749FE06202549C96AB6
:1045F000012282409143234AD16200BF1046006AE3
:104600000121C9020843114608620D2189011E4893
:10461000FCF713FB38211D48FCF70FFB40207B21E2
:104620004903887400201A4948720A20FFF726FEC1
:1046300000207B2149030870C02008743C200870CA
:10464000FF2013498871C87100207B21490308713C
:1046500070204870F0208870FF20C87000200D493D
:1046600009680122824011430A4A116000BF0A48CA
:104670000A4B0B4A012100900348FEF730FA08BDAF
:104680000053070040850F00B4020200B41002007E
:1046900020600F0000E100E0EC00020014010200C5
:1046A000AC00020005484068012189070840002845
:1046B00001D0012070470020FCE7000000850F00BA
:1046C000F0B5714B9D440025FF211F316F48FBF76A
:1046D00099FE6F49884202D16E482D1805E06C485A
:1046E000C043694B5B429D44F0BDFF2111316A48D4
:1046F000FBF791FE6649884202D168482D1802E016
:104700006348C043EDE76448406887906248816829
:10471000869147785D491431FF2201328BA8FCF75E
:1047200073FAFF2101318BA8FBF764FE5A490C395B
:10473000082288A8FCF768FA082188A8FBF75AFE27
:1047400055490C31FF220132CCA8FCF75DFAFF215C
:104750000131CCA8FBF74EFE5148854202D04C48AF
:10476000C043BEE78698002802DC4948C043B8E74A
:10477000012F0AD120264B48684440230090022094
:10478000869A8799FBF769FE0FE0022F0AD140262F
:1047900044486844802300900420869A8799FBF758
:1047A0005CFE02E03A48C0439BE78321890002A8EF
:1047B000FCF743FAFF210131029100250A2188A864
:1047C000FBF720FE3249884202D132482D1802E020
:1047D0002F48C04385E7042288A903A8FBF733FECE
:1047E000FF2103318BA8FBF70DFE2949884202D136
:1047F0002A482D1802E02648C04372E7FF22013202
:104800008BA904A8FBF71FFEFF220132CCA9CCA87C
:10481000FBF719FE0020244B02AACCA90090FFA8A8
:104820003830FBF701FE0190FF220132FFA9383139
:104830000846FBF708FE002412E01A486844015DB0
:10484000FF200130801B001F0019FFAA3832105CC6
:10485000814201D12D1902E00D48C04341E7641C9B
:10486000B442EADB0E488590002403E085980119E4
:104870008591641CB442F9DB8598854201D10448D6
:104880002FE70348C0432CE7CCF9FFFF14B0020028
:10489000AA55AA551111000034B1020022220000CD
:1048A0003333000034050000051D0001F0B5C9B028
:1048B00005460F461646002403E02819FCF7C9F800
:1048C0002034B442F9D3FF221F320E492846FCF7A8
:1048D00007F8FF21213101A8FCF7AFF9FF221F32B1
:1048E00001A90948FCF736F80649FF221F3201A842
:1048F000FCF7AEF9002802D1012049B0F0BD00203C
:10490000FBE7000014B00200007C00010002AA5581
:104910003A02C2840005C000800DC05C0013C05D77
:10492000802D20204A8BC001803CC002804CC01DDD
:104930000055C01F005EC0208070C0290076C04CAA
:10494000808A20204A8B204068C4204060D72040C5
:1049500000112020400A2075800020207B9A5800FA
:10496000001B67E441F65800002367E441FE204045
:104970004DAF20404DBC20404C2A2020504D1A62A3
:104980007E00C0048021C001001F20204DDF704A3E
:10499000B10020204DFB704AB10620204E08204077
:1049A0000025202050C36FE24AB1207A00001FE0AA
:1049B000FFFF67E24AB1247A00006FE44652C280EA
:1049C0004D64206000006FE20AFFC013803AC00609
:1049D000003120204E5C1A220600EFE20003C000E6
:1049E0004F1CC000CF1FC0014F25C00180382020C0
:1049F000501C5800000120204F202040501F202034
:104A00004D85204049BA7823FC007824FC000980B9
:104A1000000819897E0067E202D50980000819891B
:104A20007E00E7E200051FE1723F2022D88B1FE6DF
:104A30007C332441004A20205887DF200033206047
:104A40000000204058A3204049156842001720402C
:104A5000491C200005DC2040492178287C00D960D1
:104A6000157C202058696FE2007DC0080058202086
:104A700060FE6842054E18467C062021005C20201E
:104A8000620670007E242020613478547C0020402F
:104A900066A36FE20048207A0000C2838064202071
:104AA00063F2C0420067C041806A20206421204038
:104AB000006D6FE200482020647B2040006D6FE2B3
:104AC0000048202064EF6FE2462C203A650D20203C
:104AD00065066FE2409E793FFE0367E2409E580004
:104AE000000167E404CA206000006FE204F9C01FFF
:104AF000E93EC039E947C077807CC029EA052060DB
:104B000000006FE404FD1FE20C00204069846FE2A6
:104B100004FFC020E966C020696EC038E9A7C0382C
:104B20000086C024E9BE20206A58700A95082040FB
:104B30007BAB20406972202069BA6FE24490203A32
:104B40005ED020407438202079321BD2AA55010053
:104B500092400AAA550100544640AA550100064257
:104B600013AA5508009840FFFB8FF88B855983AA3C
:104B70005503001442074A05AA5504003D45007F2D
:104B80000007AA5503002D46030004AA5501002C76
:104B90004601AA5506005746043030303030AA5539
:104BA0001000F04F001CFF1F001C001C004CE04FC9
:104BB000004C004CAA55020068460002AA550100AC
:104BC0006C4603AA5501006F4607AA550300AA4088
:104BD000240404AA550100794600AA550100914019
:104BE00000AA5503005441000108AA550100744170
:104BF00002AA550100934000AA5501006D4628AA5B
:104C0000550600A040A72A2A21103AAA550C00E711
:104C1000440B33313231204D6F75204274AA550355
:104C200000E441200001AA550100E84100AA550115
:104C300000904401AA5501005F4407AA550100985D
:104C40004400AA55040075462D002F00AA55010006
:104C5000404300AA55020054444000AA5501006E8A
:104C60004605AA550600724421220133023AAA558C
:104C70000D0081430C33313231204D6F7520426C71
:104C800065AA550400414303020102AA55160061BA
:104C9000430E0201021109596963686970203130BD
:104CA000323173204D6F75AA550700254402030069
:104CB00005100203AA55080068440800100000000F
:104CC0002C01AA5501007844B9AA5501007A44176D
:104CD000AA550200CC443100AA550100D14001AAD6
:104CE000550C0049450503001200010100011103A4
:104CF00000AA5501005F4500AA55020047458346BA
:104D0000AA55B8008346031200010000010001000B
:104D1000013600520900000A0001000109000135B6
:104D200003191200090004350D35061901000900A8
:104D3000013503190001090009350835061912006B
:104D40000901000902000901030902010905AC0972
:104D50000202090239090203090644090204280172
:104D6000090205090002031101000301000001000E
:104D7000033600460900000A00010003090001355E
:104D8000031911010900020A00000000090004359E
:104D90000C35031901003505190003080109000647
:104DA000350909656E09006A090100090100250A33
:104DB00053505020736C6176650000000100AA55C5
:104DC00002008E44AF47AA553502AF4701000200EA
:104DD0002802001802000203280102030002012A2F
:104DE00002C8000400020328010A050002002A1478
:104DF000417374204C45204D6F7573652020202031
:104E00002020202006000203280102070002042AB5
:104E1000080600060064002C0108000203280102B5
:104E2000090002022A01010A0002032801080B00FE
:104E300002032A060000000000000C000200280205
:104E400001180D0002032801200E0002052A000FA0
:104E500000020229020000100002002802041811BA
:104E6000000203280116120002072A0100130002A3
:104E700002290200001400020028020F1815000287
:104E800003280112160002192A013817000200280F
:104E9000020A1818000203280102190002232A033B
:104EA0000000001A0002032801021B0002292A0840
:104EB000466C6167747269701C0002032801021D50
:104EC0000002242A067969636869701E00020328BB
:104ED00001021F0002252A04636F6D3320000203C4
:104EE000280102210002262A03312E30220002036B
:104EF000280102230002282A03312E302400020355
:104F00002801022500022A2A03312E30260002033E
:104F1000280102270002252A04636F6D332800024E
:104F200000281055E405D2AF9FA98FE54A7DFE43C6
:104F3000535349290002032801122A00101696240F
:104F400047C62361BAD94B4D1E4353534914000041
:104F50000000000000000000000000000000000051
:104F600000002B000202290200002C00020328018D
:104F7000082D0010B39B7234BEECD4A8F4434188D2
:104F800043535349140000000000000000000000DB
:104F90000000000000000000002E000203280104B1
:104FA0002F0010FE69CA9A5619F6AB024DAA6D433E
:104FB00053534914000000000000000000000000EE
:104FC00000000000000000003000020328011A3138
:104FD00000101803A6285ED8EC911C48A3AC4353DC
:104FE0005349140000000000000000000000000011
:104FF0000000000000000032000202290200000050
:1050000000AA550100004002AA550100174009AA54
:10501000550100204028AA55020027404402AA5505
:1050200001002A4004AA550100334002AA55070096
:1050300076410F84300A0BB232AA55020057418BD9
:105040000BAA550800A1000000000000000000AA03
:10505000550200BD400224AA550800AD40400000A2
:105060000232000002AA550200BB402000AA5504EB
:1050700000B74020000020AA550400BF4080040073
:1050800008AA550500E244080E050400AA550200CE
:105090000242301FAA550100104220AA550100E02B
:1050A0004101AA550F00B24A4BBA55D056E0578875
:1050B000586C591007FFFFAA550200C340B24A3A84
:1050C0007D4750494F5F436F6E666967004750499F
:1050D0004F5F496E6974004750494F5F50756C6C63
:1050E0005570436D64004750494F5F526561644994
:1050F0006E70757444617461004750494F5F52652A
:105100006164496E707574446174614269740047EA
:1051100050494F5F526561644F7574707574446196
:105120007461004750494F5F526561644F757470F8
:10513000757444617461426974004750494F5F520D
:105140006573657442697473004750494F5F5365D6
:105150007442697473004750494F5F5772697465B0
:10516000004750494F5F5772697465426974005532
:105170004152545F4175746F466C6F774374726C23
:10518000436D6400554152545F4465496E69740033
:10519000554152545F444D4153656E6442756600FB
:1051A000554152545F496E697400554152545F49EC
:1051B0007352584649464F46756C6C0055415254DF
:1051C0005F497352584649464F4E6F74456D70742F
:1051D0007900554152545F49735541525442757399
:1051E0007900554152545F4954436F6E66696700B8
:1051F000554152545F5265636569766544617461D7
:1052000000554152545F52656376427566005541C0
:1052100052545F53656E6442756600554152545F47
:10522000536574527849544E756D00554152545F20
:1052300052656365697665446174614C656E00739F
:1052400079735469636B5F64656C61795F6D73003A
:105250005379735469636B5F44656C61795F55730F
:10526000005379735469636B5F436F6E66696700BF
:1052700009025D00010104803209040000030B00F3
:10528000000536211001000301000000100E00008F
:10529000100E000000CD250000CD2500000000000C
:1052A00000000000000000000000380001000F01B5
:1052B0000000000000000001070581024000000717
:1052C00005010240000007058203080018000000E5
:1052D000F052000100000200AC010000B40C00011B
:1052E000B8530001AC010200D0BA000056380001EA
:1052F000011814F04F0C1AF804C14B740104232E4A
:10530000021AE804235C0423D005B34407191811DA
:105310003203191C113206E208193F3923291F29CB
:105320001B321032203240296E021B141361321BD3
:1053300001FD04130D331B012D041A5D041A3110F5
:105340001AD1042C1201105B180B4083045832113F
:10535000010102030E3B0A066B2A40191E040309D1
:1053600004CD281A73041A5D041AA1041A75041ACC
:105370005F041A7104C11BD9242019048B0D251850
:105380001A69101A7D04C1DAC91001201357271BAE
:10539000011F04135F2F1401A32D1B0147041A0BD7
:1053A0007C1A7F0813192B1B013304130D281B01D2
:0853B0002B042B6C01BBE10092
:04000005010003BD36
:00000001FF
